:020000040000fa
:080000000002040000000000f2
:020000040000fa
:04000800760300007b
:020000040000fa
:04000c008803000065
:020000040000fa
:040010009803000051
:020000040000fa
:040014007e03000067
:020000040000fa
:040018009003000051
:020000040000fa
:04001c000c040000d0
:020000040000fa
:04002000a003000039
:020000040000fa
:040024000c040000c8
:020000040000fa
:040028000c040000c4
:020000040000fa
:04002c000c040000c0
:020000040000fa
:040030000c040000bc
:020000040000fa
:040034000c040000b8
:020000040000fa
:040038000c040000b4
:020000040000fa
:04003c000c040000b0
:020000040000fa
:040040000c040000ac
:020000040000fa
:040044000c040000a8
:020000040000fa
:040048000c040000a4
:020000040000fa
:04004c000c040000a0
:020000040000fa
:040050000c0400009c
:020000040000fa
:040054000c04000098
:020000040000fa
:040058000c04000094
:020000040000fa
:04005c000c04000090
:020000040000fa
:040060000c0400008c
:020000040000fa
:040064000c04000088
:020000040000fa
:040068000c04000084
:020000040000fa
:04006c000c04000080
:020000040000fa
:040070000c0400007c
:020000040000fa
:040074000c04000078
:020000040000fa
:040078000c04000074
:020000040000fa
:04007c000c04000070
:020000040000fa
:040080000c0400006c
:020000040000fa
:040084000c04000068
:020000040000fa
:040088000c04000064
:020000040000fa
:04008c000c04000060
:020000040000fa
:040090000c0400005c
:020000040000fa
:040094000c04000058
:020000040000fa
:040098000c04000054
:020000040000fa
:04009c000c04000050
:020000040000fa
:0400a0000c0400004c
:020000040000fa
:0400a4000c04000048
:020000040000fa
:0400a8000c04000044
:020000040000fa
:0400ac000c04000040
:020000040000fa
:0400b0000c0400003c
:020000040000fa
:0400b4000c04000038
:020000040000fa
:0400b8000c04000034
:020000040000fa
:0400bc000c04000030
:020000040000fa
:0400c0000c0400002c
:020000040000fa
:0400c4000c04000028
:020000040000fa
:0400c8000c04000024
:020000040000fa
:0400cc000c04000020
:020000040000fa
:0400d0000c0400001c
:020000040000fa
:0400d4000c04000018
:020000040000fa
:0400d8000c04000014
:020000040000fa
:0400dc000c04000010
:020000040000fa
:0400e0000c0400000c
:020000040000fa
:0400e4000c04000008
:020000040000fa
:0400e8000c04000004
:020000040000fa
:0400ec000c04000000
:020000040000fa
:0400f0000c040000fc
:020000040000fa
:0400f4000c040000f8
:020000040000fa
:0400f8000c040000f4
:020000040000fa
:0400fc000c040000f0
:020000040000fa
:040100000c040000eb
:020000040000fa
:040104000c040000e7
:020000040000fa
:040108000c040000e3
:020000040000fa
:04010c000c040000df
:020000040000fa
:040110000c040000db
:020000040000fa
:040114000c040000d7
:020000040000fa
:040118000c040000d3
:020000040000fa
:04011c000c040000cf
:020000040000fa
:040120000c040000cb
:020000040000fa
:040124000c040000c7
:020000040000fa
:040128000c040000c3
:020000040000fa
:04012c000c040000bf
:020000040000fa
:040130000c040000bb
:020000040000fa
:040134000c040000b7
:020000040000fa
:040138000c040000b3
:020000040000fa
:04013c000c040000af
:020000040000fa
:040140000c040000ab
:020000040000fa
:040144000c040000a7
:020000040000fa
:040148000c040000a3
:020000040000fa
:04014c000c0400009f
:020000040000fa
:040150000c0400009b
:020000040000fa
:04015400d0030000d4
:020000040000fa
:040158000c04000093
:020000040000fa
:04015c000c0400008f
:020000040000fa
:040160000c0400008b
:020000040000fa
:040164000c04000087
:020000040000fa
:040168000c04000083
:020000040000fa
:04016c000c0400007f
:020000040000fa
:040170000c0400007b
:020000040000fa
:040174000c04000077
:020000040000fa
:040178000c04000073
:020000040000fa
:04017c000c0400006f
:020000040000fa
:040180000c0400006b
:020000040000fa
:040184000c04000067
:020000040000fa
:040188000c04000063
:020000040000fa
:04018c000c0400005f
:020000040000fa
:040190000c0400005b
:020000040000fa
:040194000c04000057
:020000040000fa
:040198000c04000053
:020000040000fa
:04019c000c0400004f
:020000040000fa
:0401a0000c0400004b
:020000040000fa
:0401a4000c04000047
:020000040000fa
:0401a8000c04000043
:020000040000fa
:0401ac000c0400003f
:020000040000fa
:0401b0000c0400003b
:020000040000fa
:0401b4000c04000037
:020000040000fa
:0401b8000c04000033
:020000040000fa
:0401bc000c0400002f
:020000040000fa
:0401c0000c0400002b
:020000040000fa
:0401c4000c04000027
:020000040000fa
:0401c8000c04000023
:020000040000fa
:0401cc000c0400001f
:020000040000fa
:0401d0000c0400001b
:020000040000fa
:0401d4000c04000017
:020000040000fa
:0401d800ee03000032
:020000040000fa
:0401dc000c0400000f
:020000040000fa
:0401e0000c0400000b
:020000040000fa
:0401e4000c04000007
:020000040000fa
:0401e8000c04000003
:020000040000fa
:0401ec000c040000ff
:020000040000fa
:0401f0000c040000fb
:020000040000fa
:0401f4000c040000f7
:020000040000fa
:0401f8000c040000f3
:020000040000fa
:0401fc000c040000ef
:020000040000fa
:040200000c040000ea
:020000040000fa
:040204000c040000e6
:020000040000fa
:040208000c040000e2
:020000040000fa
:04020c000c040000de
:020000040000fa
:040210000c040000da
:020000040000fa
:040214000c040000d6
:020000040000fa
:040218000c040000d2
:020000040000fa
:04021c000c040000ce
:020000040000fa
:040220000c040000ca
:020000040000fa
:040224000c040000c6
:020000040000fa
:040228000c040000c2
:020000040000fa
:04022c000c040000be
:020000040000fa
:040230000c040000ba
:020000040000fa
:040234000c040000b6
:020000040000fa
:040238000c040000b2
:020000040000fa
:04023c000c040000ae
:020000040000fa
:040240000c040000aa
:020000040000fa
:040244000c040000a6
:020000040000fa
:040248000c040000a2
:020000040000fa
:04024c000c0400009e
:020000040000fa
:040250000c0400009a
:020000040000fa
:040254000c04000096
:020000040000fa
:040258000c04000092
:020000040000fa
:04025c000c0400008e
:020000040000fa
:040260000c0400008a
:020000040000fa
:040264000c04000086
:020000040000fa
:040268000c04000082
:020000040000fa
:04026c000c0400007e
:020000040000fa
:040270000c0400007a
:020000040000fa
:040274000c04000076
:020000040000fa
:040278000c04000072
:020000040000fa
:04027c000c0400006e
:020000040000fa
:040280000c0400006a
:020000040000fa
:040284000c04000066
:020000040000fa
:040288000c04000062
:020000040000fa
:04028c000c0400005e
:020000040000fa
:040290000c0400005a
:020000040000fa
:040294000c04000056
:020000040000fa
:040298000c04000052
:020000040000fa
:04029c000c0400004e
:020000040000fa
:0402a0000c0400004a
:020000040000fa
:0402a4000c04000046
:020000040000fa
:0402a8000c04000042
:020000040000fa
:0402ac000c0400003e
:020000040000fa
:0402b0000c0400003a
:020000040000fa
:0402b4000c04000036
:020000040000fa
:0402b8000c04000032
:020000040000fa
:0402bc000c0400002e
:020000040000fa
:0402c0000c0400002a
:020000040000fa
:0402c4000c04000026
:020000040000fa
:0402c8000c04000022
:020000040000fa
:0402cc000c0400001e
:020000040000fa
:0402d0000c0400001a
:020000040000fa
:0402d4000c04000016
:020000040000fa
:0402d8000c04000012
:020000040000fa
:0402dc000c0400000e
:020000040000fa
:0402e0000c0400000a
:020000040000fa
:0402e4000c04000006
:020000040000fa
:0402e8000c04000002
:020000040000fa
:0402ec000c040000fe
:020000040000fa
:0402f0000c040000fa
:020000040000fa
:0402f4000c040000f6
:020000040000fa
:0402f8000c040000f2
:020000040000fa
:0402fc000c040000ee
:020000040000fa
:040300000c040000e9
:020000040000fa
:040304000c040000e5
:020000040000fa
:040308000c040000e1
:020000040000fa
:04030c000c040000dd
:020000040000fa
:040310000c040000d9
:020000040000fa
:040314000c040000d5
:020000040000fa
:040318000c040000d1
:020000040000fa
:04031c000c040000cd
:020000040000fa
:040320000c040000c9
:020000040000fa
:040324000c040000c5
:020000040000fa
:040328000c040000c1
:020000040000fa
:04032c000c040000bd
:020000040000fa
:040330000c040000b9
:020000040000fa
:040334000c040000b5
:020000040000fa
:10040000ef7622000eff26000e018800000000009b
:10041000000020000000e000020032000001200087
:100420002002880014000700180107000000e00007
:1004300003003a00600d2300010020000200370095
:100440000000200001002000810f70000100320038
:100450000f000700000020000000e0000200320052
:100460000000020000000000021602000000000070
:100470000040da000000fe00400520000000e0001f
:1004800002003200002020009001880000000600d9
:10049000a1028800800478000000eb001f003700f4
:1004a000e284440054a0b4009905ba00e2844400f8
:1004b00054a0b4009906ba00e284440054a0b400e9
:1004c0000006eb00476fde00fd07b200ae018800ba
:1004d000636ce10003003a000ad801000000eb0061
:1004e0000e003700606ce10008003a00004deb00a0
:1004f0000a05e800020039003420ec000af0a000f0
:100500008b05e900f9ff3e00040037006168e10057
:10051000010032000086eb000b00070019c7ba008b
:100520001905ba000e04e00003003a000a00e000da
:10053000dbff3a0000000600fe07b200ae028800b2
:100540008a047800f5ff37000cd0a300e20f4d00bd
:100550001c003b0089027800354dba000a05e8000e
:10056000020039003420ec000af0a0008b05e900fd
:100570000f003200254dba000a05e80002003900dc
:100580003420ec000af0a0008b05e90008003200de
:100590000c00e0000600320015cdba000a05e800a4
:1005a000020039003420ec000af0a0008b05e900bd
:1005b0008984e80054a0b4000b00e000e2ff3a0098
:1005c000000006009902ba00055d78008b05e9007d
:1005d000f7ff3200c82ade00055d78008b05e900d0
:1005e000f3ff32000c00e000f1ff320019ddba0029
:1005f000eeff3700583a040000000000503a0400b3
:1006000000000000483a0400000000003c3a0400ea
:10061000000000008c380400000000009238040044
:100620000000000096380400000000009a38040022
:1006300000000000582b040000000000622a0400a3
:1006400000000000d42a0400000000001e2c04005a
:10065000000000004e2604000000000044260400b4
:10066000000000003c3b0400000000003e3b040092
:1006700000000000403b040000000000423b04007a
:1006800000000000443b040000000000463b040062
:10069000000000007e1b0400000000008c1b040012
:1006a00000000000a220040000000000022004005e
:1006b00000000000ba1d040000000000241f040018
:1006c00000000000140a0400000000009809040063
:1006d000000000004e0d040000000000020e0400a7
:1006e00000000000c6150400000000003600f800fd
:1006f000c028a9000000eb00271c07003600f80006
:10070000291c0700c048a90010002000221c070077
:100710003600f800c068a900200020001e1c070059
:100720003600f800c088a900300020001a1c07001d
:100730003600f800c608a90070002000161c07004b
:100740003600f80021468000001020000080600084
:100750000000e00003003200c508a900c00020002e
:100760000d1c070020468000700060000000e000c3
:1007700003003200c488a900a0002000061c070066
:1007800020468000610060000000e00003003200ad
:10079000c408a900b0002000ff1b0700ffff3700be
:1007a0003600f800809fbe00829fbe00849fbe007e
:1007b000869fbe000000fa005d0907000968a900d5
:1007c0000080fa004f03be004f02be004f01be0082
:1007d0004f00be003600f900004006003600f80069
:1007e000809fbe00829fbe00849fbe00869fbe0089
:1007f0000000fa003e0907000d88a9000080fa00f9
:100800004f03be004f02be004f01be004f00be00ae
:100810003600f900004006000040da000000fe004b
:100820000800fa008e81e800800978006400470023
:10083000010878006600470002087800660047005b
:10084000100f78000a00370064004700100078009d
:1008500010407800e4004700910078000101e800b2
:10086000e400470082087800371907001e0fe900ee
:100870001e0078000000e000f3ff3a006600470029
:10088000100078000080fa0000000600000005005b
:100890008f1fd1000f0007008f87e9000000e000e4
:1008a00000000600809feb000a0007008f87e90028
:1008b0000000e000000006001400200040003700a7
:1008c000f4ff2f003e003700600007000400be0068
:1008d00000000600889fbe008a9fbe008c9fbe005d
:1008e0000404be000605be00809fbe00829fbe00bd
:1008f00021000700040678000800be000a01be00bf
:100900001d000700840678004f03be004f02be00a2
:100910008d4f76007fb0970013003300f0ff2f005b
:100920008b8f6b0006003b000d0666000c00a700d5
:100930000a00370007f0a600100020000a00370068
:10094000880f5200898f5a008a0f5b008b8f5b00e3
:10095000030039001000200001003e0000002000cc
:1009600007f0a7000000ea004f06be004f05be00da
:100970004f04be000000060005ff2700058261004d
:10098000070032000428e1000100320024000500c5
:100990000600070001003a004400050004080500b5
:1009a00002000700f9ff3a00140005006f826100a1
:1009b000810270008502710085027200000006004d
:1009c000889fbe008a9fbe00841f78001700070022
:1009d0004f00780011003300f0ff2f00838f6c0070
:1009e00006003b00040565000a00a7000800370068
:1009f00009f0a6001000200008003700820f540004
:100a0000838f5c00030039001000200001003e00cd
:100a10000000200009f0a7000000ea004f05be001a
:100a20004f04be000000e000000006000004be000d
:100a3000160007000003be000405be000200be0051
:100a400012000700844f7500000006006022b80005
:100a5000060220000000d0008180d2000482d20073
:100a60008582d2000000a0000202520083825a0058
:100a7000030031000202420083824a000000a1000c
:100a80000603e900f3ff3a0000000600c70ade0093
:100a9000f107b200f50fb20008003200e1cf4200ca
:100aa000020032000170a00024000500810f7000d8
:100ab000010032000408050044000500810f7000a9
:100ac00002003a00140005008502e9000000400021
:100ad00081c04800fcff3b000170a000240005001d
:020000040000fa
:100ae00000000000a8aa000054550000fe7f00008e
:100af0000000000052d50000aa2a000000000000fb
:100b00000000000000000000a8aa000052d500006c
:100b100054550000aa2a0000fe7f000000000000db
:100b2000ffff0000140a0000980900004e0d0000ad
:100b3000020e0000c61500000000000000000000ca
:100b400000000000000000000000000000000000a5
:100b5000010000007412000000000000000000000e
:100b6000446500006320000031380000203200009e
:100b70003031000039310000303a000033340000d9
:080b80003a31000033000000cf
:020000040000fa
:100b88001800fa00889fbe008a9fbe008c1f78005c
:100b980000067800f4af9f0085b79f0096b79f00c6
:100ba800a7b79f002c709000ef4060000068a3007a
:100bb8000b003200e4cf50003b003200e8cf500079
:100bc8004e0032000046eb000c4078004f067800db
:100bd8004f05be004f04be000080fa00000006006a
:100be8000058a30018003200e2cf5000670032001e
:100bf8008c003e00e1cf5000f2ff3a008c69900073
:100c08000c6090006fda97003c299000e10f5100ca
:100c1800250132000046eb0080cf5100eaff340086
:100c280001467800844f5000e6ff35000c407800fc
:100c38004f0678004f05be004f04be000080fa0042
:100c480000000600e6ff3700e2cf500062003200e5
:100c5800a6003e00e1cf5000daff3a008c69900010
:100c68000c6090006fda97003c299000e10f51006a
:100c7800000132000046eb0080cf5100d2ff360061
:100c880001467800844f5000ceff39000c407800b0
:100c98004f0678004f05be004f04be000080fa00e2
:100ca80000000600ceff37004c109000dc109000ca
:100cb8000c1490009c1490007fad97008fb597009e
:100cc8003c2e9000e10f5600870132000801be005b
:100cd800f9fe07000000e000baff34001cc0b300b2
:100ce8000801be000a00be00f1fe07000000e00097
:100cf800b5ff34000046eb00b3ff37004c109000fe
:100d0800dc1090006c119000fc1190000c14900005
:100d18009c1490002c159000bc1590007faa970099
:100d28008fb297001fb39700afb39700b4b79f0077
:100d3800c5b79f00d6b79f00e7b79f003c2e90002d
:100d4800e10f5600530132000802be000a03be003c
:100d5800d2fe07000000e0009aff34001cc0b30078
:100d68000802be000a03be003fb09700cfb097004c
:100d78005fb19700efb19700c3fe07000000e000e5
:100d880091ff34000046eb008fff37004c119000b4
:100d98000c109000ffa99700bc289000e18f50002c
:100da800db0032000046eb00800f510086ff340064
:100db8001cc0b300830f500082ff35000c40780040
:100dc8004f0678004f05be004f04be000080fa00b1
:100dd8000000060082ff37004c1190000c109000b4
:100de800ffa99700bc289000e18f5000bb0032009b
:100df8000046eb00800f510073ff36001cc0b300a3
:100e0800830f50006fff39000c4078004f067800c0
:100e18004f05be004f04be000080fa000000060027
:100e28006fff3700e4cf50007a003200e8cf50005f
:100e380064ff3a004c149000dc1490006c1590008c
:100e4800fc159000f8b79f0089bf9f009abf9f00cc
:100e5800abbf9f000c1090009c1090002c119000cc
:100e6800bc119000b4b79f00c5b79f00d6b79f00cc
:100e7800e7b79f00bc2a9000e18f5200ea003200d9
:100e88000046eb007fb497008fbc97001fbd97000a
:100e9800afbd97000040e10001c8e10002d0e100c9
:100ea80003d8e10048ff34001cc0b3003fb29700ec
:100eb800cfb297005fb39700efb397000400e1004b
:100ec8000588e1000690e1000798e1003dff350044
:100ed8000c4078004f0678004f05be004f04be0056
:100ee8000080fa00000006003dff3700e4cf500004
:100ef80030003200e8cf500032ff3a004c14900026
:100f0800dc1490006c159000fc159000f8b79f0059
:100f180089bf9f009abf9f00abbf9f000c10900035
:100f28009c1090002c119000bc119000b4b79f0049
:100f3800c5b79f00d6b79f00e7b79f00bc2a9000af
:100f4800e18f52009d0032000046eb007fb497000d
:100f58008fbc97001fbd9700afbd97000040e10010
:100f680001c8e10002d0e10003d8e10016ff360015
:100f78001cc0b3003fb29700cfb297005fb3970091
:100f8800efb397000400e1000588e1000690e10056
:100f98000798e1000bff39000c4078004f067800f5
:100fa8004f05be004f04be000080fa000000060096
:100fb8000bff37004c129000dc1290000c109000d0
:100fc8009c1090007fab97008fb397003c2990004e
:100fd800e10f51006a0032000046eb00800f52001a
:100fe800818f5a00f8fe36001cc0b300860f5000ef
:100ff800878f5800f3fe39000c4078004f067800c0
:101008004f05be004f04be000080fa000000060035
:10101800f3fe37004c129000dc1290000c10900088
:101028009c1090007fab97008fb397003c299000ed
:10103800e10f5100430032000046eb00800f5200e0
:10104800818f5a00e0fe34001cc0b300860f5000a8
:10105800878f5800dbfe35000c4078004f0678007b
:101068004f05be004f04be000080fa0000000600d5
:10107800dbfe37000046eb0080cf5100d2fe310086
:1010880002467800844f5000cefe3e000c407800a7
:101098004f0678004f05be004f04be000080fa00de
:1010a80000000600cefe37000046eb0080cf51005e
:1010b800c5fe3d0002467800844f5000c1fe3c004a
:1010c8000c4078004f0678004f05be004f04be0064
:1010d8000080fa0000000600c1fe37000046eb0061
:1010e800800f5100b8fe310001467800830f500090
:1010f800b4fe3e000c4078004f0678004f05be0055
:101108004f04be000080fa0000000600b4fe37005d
:101118000046eb00800f5100abfe3d000146780011
:10112800830f5000a7fe3c000c4078004f06780063
:101138004f05be004f04be000080fa000000060004
:10114800a7fe37000046eb00800f5200818f5a003f
:101158009dfe3d0002467800860f5000878f58009c
:1011680098fe3c000c4078004f0678004f05be0002
:101178004f04be000080fa000000060098fe370009
:101188000046eb00800f5200818f5a008efe31001e
:1011980002467800860f5000878f580089fe3e006f
:1011a8000c4078004f0678004f05be004f04be0083
:1011b8000080fa000000060089fe37000046eb00b8
:1011c8007fb497008fbc97001fbd9700afbd9700f5
:1011d8000040e10001c8e10002d0e10003d8e100cd
:1011e80079fe3100054678003fb29700cfb29700ec
:1011f8005fb39700efb397000400e1000588e100b2
:101208000690e1000798e1006efe3e000c40780071
:101218004f0678004f05be004f04be000080fa005c
:10122800000006006efe37000046eb007fb4970012
:101238008fbc97001fbd9700afbd97000040e1002d
:1012480001c8e10002d0e10003d8e1005efe3d00e4
:10125800054678003fb29700cfb297005fb397007a
:10126800efb397000400e1000588e1000690e10073
:101278000798e10053fe3c000c4078004f067800c8
:101288004f05be004f04be000080fa0000000600b3
:1012980053fe37000802be000a03be007afd0700ad
:1012a8000000e00047fe3d000802be000a03be0041
:1012b8003fb09700cfb097005fb19700efb19700ac
:1012c80076fd07000000e0003efe35000c40780087
:1012d8004f0678004f05be004f04be000080fa009c
:1012e800000006003efe37000801be0070fd070042
:1012f8000000e00033fe3d000801be000a00be0009
:101308006dfd07000000e0002efe35000c4078005f
:101318004f0678004f05be004f04be000080fa005b
:10132800000006002efe3700889fbe008a9fbe0080
:101338000088eb008001eb00130098000042eb00ee
:1013480023509800230098003450980033009800e8
:101358004450980043009800545098005300980057
:1013680064509800630098007450980073009800c7
:1013780004589800030898001458980051089800d9
:101388006044b8006055b80008109800191098001b
:101398002a1098003b10980048109800591098009f
:1013a8006a1098007b109800031898002470980021
:1013b800231898006033b80036189800471898002a
:1013c8002478980034789800631898007318980067
:1013d8000320980024c09800262098003720980001
:1013e800462098005720980044c898007620980016
:1013f8000728980012289800232898001100200038
:10140800312898006208980073089800d19a8000e3
:10141800c00898004f05be004f04be00000006003b
:101428000800fa00889fbe008a9fbe008c9fbe00fd
:10143800000678002c189000e60f500019003e00b6
:10144800e50f5000370039008c1890002c70900080
:101458006f406000e24f50008201320031013e00cf
:10146800e14f50004e0132006fb29700ffb2970073
:101478000fbb97009fbb97000c007800c0fd0700ca
:101488000004e0001901320040002000201e9800ee
:101498004f06be004f05be004f04be000080fa0094
:1014a80000000600e70f500084003200e80f5000eb
:1014b800f7ff3a007c189000ec1890000001e80053
:1014c800721e9800810f5000f1ff39000000eb00f8
:1014d800701e98002c7890000080fb008000eb00c4
:1014e8004c219000dc2190000000410081804900df
:1014f8004026980051269800e00f5000e08f5800d1
:10150800e3ff350020002000201e98004f06be0093
:101518004f05be004f04be000080fa000000060020
:10152800e0ff3700e20f5000a4003200e40f500043
:10153800d8003200e10f5000d5ff3a007c18900027
:10154800ec1890000001e800721e9800810f50000e
:101558002d0039000000eb00701e98003c19900027
:10156800cc1990002c7a90000482fb008002eb00da
:1015780004024100858249006c089000fc08900034
:10158800800f5200818f5a00030036006011b800a6
:10159800321e9800431e98008046eb008d83fb00a6
:1015a8000040eb000703e800f28343000603430012
:1015b800dc0890000082fb00ec027b00e5427a0028
:1015c8008570790061014100e0814900321e980070
:1015d800431e98000040e800ecc07b00814f50009b
:1015e800f3ff39008d46e8003c78900080cf560024
:1015f800eaff39007c2090008c289000820f500070
:10160800838f5800e30036008c1890002c709000ef
:101618006f406000e24f50001a013200cc003e00db
:10162800e14f5000f10032000802be000a03be007c
:101638000c00780052fd07000004e000a100320011
:101648004cc890000004e0009e0032002c2090005e
:10165800bc209000e00f5000e08f5800e8003500f3
:101668003c189000cc189000e00f5000e08f580014
:10167800f00032007c1990000200e000f4003a000b
:101688002c7990000281fb008001eb0002005000e1
:10169800838058004026980051269800700020004a
:1016a800201e98004f06be004f05be004f04be0026
:1016b8000080fa00000006007aff37007c189000ce
:1016c800ec1890000001e800721e9800810f50008d
:1016d8006fff39000000eb00701e98003c19900065
:1016e800cc1990002c7a90000482fb008002eb0059
:1016f80004024100858249006c089000fc089000b3
:10170800800f5200818f5a00040036006033b80001
:10171800361e9800471e98006011b8000044eb0080
:101728008883fb000040eb000703e800f2834300d6
:1017380006034300dc0890000082fb00ec027b00fb
:10174800e5427a008570790061014100e081490035
:10175800321e9800431e98000040e800ecc07b0051
:10176800814f5000f3ff39000844e8003c789000ae
:10177800804f5400eaff39004c209000dc20900094
:1017880002015000838158002c209000bc2090005a
:10179800800f5100818f590074003e000000eb005b
:1017a800201e98004f06be004f05be004f04be0025
:1017b8000080fa00000006003aff37007c1890000d
:1017c800ec1890000001e800721e9800810f50008c
:1017d800270039000000eb00701e98003c199000ab
:1017e800cc1990000044eb008883fb000040eb001c
:1017f8000703e800f283430006034300dc08900077
:101808000082fb00ec027b00e5427a0085707900db
:1018180061014100e0814900321e9800431e980092
:101828000040e800ecc07b00814f5000f3ff390016
:101838000844e8003c789000804f5400eaff3900e3
:101848002c7890000080fb008000eb000201400033
:10185800838148006c089000fc089000800f5100bc
:10186800818f5900020036000000eb00201e98000e
:101878000c2090000000e800002698004f06be00eb
:101888004f05be004f04be000080fa0000000600ad
:1018980004ff37000c2090000000e80000269800a4
:1018a8007c1890000000e800701e98004f06be00eb
:1018b8004f05be004f04be000080fa00000006007d
:1018c800f8fe370048169800591698006a169800ce
:1018d8007b1698004f06be004f05be004f04be00a1
:1018e8000080fa0000000600eefe37006fb0970097
:1018f800ffb097000fb997009fb99700401698005e
:101908005116980062169800731698004f06be008c
:101918004f05be004f04be000080fa00000006001c
:10192800e0fe3700e44f500026003200e84f500038
:10193800cdfe3a003102be002103be00e4b79f008d
:10194800f5b79f0086bf9f0097bf9f00c6fe370070
:10195800e44f500022003200e84f500032ff3a00b6
:101968003104be002105be002fff37001c2a90005d
:10197800ac2a90000201420083814a00820f500085
:10198800838f5800c2fe39000000eb00201e98002b
:1019980084ff370010c0b30040ce98001aff37000c
:1019a800114078000082fb008002eb006033b80031
:1019b800e4b79f00f5b79f0086bf9f0097bf9f00c1
:1019c800a9fe37001102be006033b800e4b79f00db
:1019d800f5b79f0086bf9f0097bf9f00a2fe370004
:1019e8001104be006055b8000fff3700114478009d
:1019f8000884fb008004eb006055b8000aff37003c
:101a080040269800512698006022b800341e98009d
:101a1800451e980080002000201e98004f06be003a
:101a28004f05be004f04be000080fa00000006000b
:101a38009cfe37002c7890000080fb008000eb00b3
:101a48001c299000ac2990000000510081805900a9
:101a5800402698005126980070002000201e98000b
:101a680010ff3700110078006102b8006033b80039
:101a7800e4b79f00f5b79f0086bf9f0097bf9f0000
:101a880079fe3700110478008004eb006055b80037
:101a9800e5fe37004071900082487800307a900067
:101aa8009440980040799000a2409800507a9000a5
:101ab800b440980060719000c240980030199000be
:101ac800c0199000481add004811de0002017200ba
:101ad800c819de00d240980000799000e2409800d2
:101ae800107a9000f440980020599000824898009d
:101af80050099000cf91de00481add004811de0041
:101b080002017200c819de0092489800500990003e
:101b1800cf91de00a348980050099000cf91de00d5
:101b28004819de00b248980040c19000c2489800a9
:101b380020219000b0219000481add004811de00f5
:101b480002017200d248980060c19000e2489800f3
:101b580070c29000f448980000c990008250980024
:101b680040219000d0219000481add004811de0085
:101b7800020172009250980020c99000a25098006b
:101b880030ca9000b450980020d19000c2509800fc
:101b980010299000a0299000481add004811de00a5
:101ba80002017200c819de00d250980040d190009e
:101bb800e250980050d29000f4509800405990009c
:101bc8008258980060099000f0099000481add00da
:101bd8004811de0002017200c819de009258980010
:101be80060599000a258980070589000b05898001a
:101bf80020c8b300c0589800d00105006f02b0009b
:101c0800889fbe008a9fbe008c9fbe008e1f7800f2
:101c18000004be00824678001ac0b300e3cf560025
:101c2800c6003600090678005c407800e84f50008e
:101c3800c2003e000004e000c00032008000eb005b
:101c4800211c98000040eb00317c9800012498008a
:101c58006011b800321c9800431c9800394190006c
:101c68004811dd00a94090008180fb0081004100ff
:101c7800611c9800711c98006022b8006033b8009d
:101c88004414980055149800661498007714980026
:101c9800207c980021c0b30021c4980040cc980053
:101ca8006022b80044249800552498001c04e000e1
:101cb800a70232004ac0b300804578000c077800bc
:101cc800ede79f008a40e8000a80fb006940780041
:101cd800e14f5000e10032009f0031008b86fb008d
:101ce8008180fb000d00e8000000400001864400f0
:101cf8001c4190000281fb008001eb00481add00c6
:101d0800c812de00850272004812dd002c419000e6
:101d18008281fb0002002000040241008582490004
:101d280069c178000281fb008001eb0004014100d9
:101d380085814900023478004c4090008d064400ab
:101d4800a05698002879900002414000227c980013
:101d5800a8c0900000c0400020c49800680e900001
:101d6800f80e90000281fb008001eb000c00be0021
:101d7800d3fa07000000560081805e00102c9800fe
:101d8800212c9800664545008b45e8009ecf15003c
:101d9800ccff3e000e067800efe697008a80fb0035
:101da8000a45e8000a80fb008a45e800e9c0780097
:101db800e1ef9f002174980069407800e14f5000de
:101dc800830232006f0131000b82fb000480440063
:101dd800104190000281fb008001eb00481bdd00f0
:101de800c813de00870373004813dd00204190000c
:101df8008281fb000200200006034100878349001e
:101e080069417a000281fb008001eb000601410074
:101e180087814900021c98006feb9700e4c54500d4
:101e2800fbef9f006f476300e24f570085023200c7
:101e38009e013e00e14f57004b003a00ffeb970030
:101e48008781fb0069c279000482fb008002eb00f5
:101e58006033b800041498001514980026149800ec
:101e680037149800efea97000504e0008c0135006c
:101e7800854078000154a000217498007feb9700fa
:101e8800644543000a81fb008280440011429000af
:101e98000482fb008002eb00482bdd00c823de0033
:101ea800870373004823dd00214090008082fb00f7
:101eb800040020000603420087834a006941790034
:101ec8000282fb008002eb000601420087814a0083
:101ed80031409000c800dd000000200002004000f2
:101ee80083804800202498003124980015130700a7
:101ef80070249800012c9800644045000080fb0085
:101f0800694078000080fb00302c9800654545004a
:101f18008acf56003b0136000a85fb0069407d00e8
:101f2800e14f5000710032001c4678003c7c98005c
:101f38001980fb00201c98000045eb000a4078003f
:101f48004f0778004f06be004f05be004f04be0085
:101f58006f02b10000000600e24f50002500320079
:101f6800e34f5000090032001ac0b3000a4078005d
:101f78004f0778004f06be004f05be004f04be0055
:101f88006f02b10000000600f3ff37008180fb00fc
:101f980001864400ac409000bc419000d09a80007b
:101fa800100178000200e000efff3200c819dd00e0
:101fb8008180fb008181410092007800818f51006f
:101fc800710032000100e000e7ff320064004100c8
:101fd8000001780090007800818f51006a0032007b
:101fe800640040000100e000f9ff3a001ac0b300a5
:101ff800deff37008180fb0001864400ac40900082
:10200800bc419000d09a8000100178000200e000e6
:10201800d5ff3200c819dd008180fb0081814100b5
:1020280092007800818f5100b50032000100e00075
:10203800cdff320064004100000178009000780074
:10204800818f5100ae003200640040000100e000c2
:10205800f9ff3a001ac0b300c4ff37008180fb00c3
:10206800e9c17800018644001c429000ac40900011
:102078003c439000d29a8000920278000500e0006c
:1020880008003a00004078004f0778004f06be006d
:102098004f05be004f04be006f02b10000000600ed
:1020a800adff37004833dd008180fb0001034300aa
:1020b80095007800810f5300540032000100e000c1
:1020c800f0ff3200648042008002780090007800bf
:1020d800810f53004d003200640040000100e00011
:1020e800f9ff3a001ac0b300a0ff37008818900023
:1020f800287090006f406000e24f5000820232006a
:102108006e023e00e14f50000e0032007fa09700a3
:102118008fa897001fa99700afa9970040149800af
:102128005114980062149800731498001c467800a3
:102138003c7c98001980fb00201c98000045eb00af
:102148007eff3700114078000082fb008002eb0020
:102158006033b800f4a79f0085af9f0096af9f003b
:10216800a7af9f007fa097008fa897001fa997008f
:10217800afa9970040149800511498006214980071
:1021880073149800e9ff37000100e00076ff320081
:10219800920090000100e00073ff32008b86fb0084
:1021a8000d00e80000004000113478004c40900019
:1021b8008d064400a05698002879900002414000fe
:1021c800227c9800a8c0900000c0400020c498005d
:1021d800680e9000f80e90000281fb008001eb0071
:1021e8000c00be00b6f907000000560081805e00b2
:1021f800102c9800212c9800664545008b45e80076
:102208009ecf1500affe3e00e2fe37000100e00061
:1022180055ff3200150090000000e00052ff320028
:10222800100378009202900015017800820f530085
:102238000c0032000200e0004bff3200ec8042004c
:102248008102780011017800820f530005003200e6
:10225800ec8040000200e000f9ff3a001ac0b30029
:1022680042ff37000200e0003fff32000500e000b7
:102278003dff32008b86fb00c820dd008381fb0018
:102288008380400055019000020001008d00e800a5
:102298008180400000b478000000e00032ff320086
:1022a8004c4090008d064400a05698002879900074
:1022b80002414000227c9800a8c0900000c0400065
:1022c80020c49800680e9000f80e90000281fb0070
:1022d8008001eb000c00be0079f9070000005600f1
:1022e80081805e00102c9800212c980066454500de
:1022f8008b45e8009ecf150072fe3e00a5fe370014
:102308000100e00018ff3200920090000100e00098
:1023180015ff32008b86fb000d00e800000040002e
:10232800013478004c4090008d064400a056980077
:102338002879900002414000227c9800a8c09000b3
:1023480000c0400020c49800680e9000f80e90006d
:102358000281fb008001eb000c00be0058f9070069
:102368000000560081805e00102c9800212c9800f7
:10237800664545008b45e8009ecf150051fe3e009e
:1023880084fe3700e24f5000f5003200e34f500062
:10239800f5fe3a000b80fb000080440020429000cc
:1023a80030419000d09a8000900178001ac0b300a4
:1023b8000300e000e1fe32004811dd000482fb006a
:1023c8000402410013017800820f52008801320094
:1023d8000200e000d9fe320064804100efe8970077
:1023e8008001780010017800820f52007f013200ce
:1023f800640040000200e000f9ff3a001ac0b30090
:10240800dafe370088189000287090006f4060004e
:10241800e24f50004c01320038013e00e14f5000bd
:102428000e0032007fa897008fb097001fb1970069
:10243800afb19700401498005114980062149800a6
:10244800731498001c4678003c7c98001980fb00a7
:10245800201c98000045eb00b8fe370011407800ba
:102468000082fb008002eb006033b800f4af9f00ed
:1024780085b79f0096b79f00a7b79f007fa89700d2
:102488008fb097001fb19700afb197004014980024
:10249800511498006214980073149800e9ff3700eb
:1024a800ffeb97000745470076fe3700e44f5700db
:1024b800f3003200e84f5700abfe3a007fe8970080
:1024c8000085fb008a80440081bf9f0091459000f1
:1024d8000b82fb008002eb006033b800c83bdd00d4
:1024e800c835de00878375004833dd00c82dde005f
:1024f80006837500c82add00c825de0085827500c0
:102508004822dd00b4b79f00c5b79f00d6b79f002b
:10251800e7b79f00214090000082fb008002eb009b
:102528006033b800860378000503780084027800d9
:102538000002eb003fb09700cfb097005fb1970063
:10254800efb197000400400085804800060149006b
:1025580087814900b0af9f00c1af9f00d2af9f00f5
:10256800e3af9f0069427d000480fb008000eb0020
:102578006011b8003faa9700cfaa97005fab9700f9
:10258800efab97000002420081824a0002034b0031
:1025980083834b00b4b79f00c5b79f00d6b79f0091
:1025a800e7b79f008fba9700354290000480fb0080
:1025b8008000eb006011b800c811dd00480ade0099
:1025c800830172004809dd004802de000201720042
:1025d800c800dd000000eb003fb29700cfb29700c3
:1025e8005fb39700efb397000000420081804a0074
:1025f80002014b0083814b00b0af9f00c1af9f0029
:10260800d2af9f00e3af9f008fba9700454290007a
:102618000480fb008000eb006011b8000001be00e0
:102628006000b8003faa9700cfaa97005fab970059
:10263800efab97000000420081804a0002014b0086
:1026480083814b00b0b79f00c1b79f00d2b79f00ee
:10265800e3b79f008fba9700554290000480fb00b3
:102668008000eb006011b800c809dd004802de00f8
:10267800830172004801dd006000b8003fb2970096
:10268800cfb297005fb39700efb397000000420006
:1026980081804a0002014b0083814b00b0af9f004c
:1026a800c1af9f00d2af9f00e3af9f008fba9700e2
:1026b800654290000480fb008000eb006011b800c8
:1026c800800178000001eb006000b8003faa970085
:1026d800cfaa97005fab9700efab970000004200ce
:1026e80081804a0002014b0083814b00b0b79f00f4
:1026f800c1b79f00d2b79f00e3b79f008fba97007a
:10270800754290000480fb008000eb006011b80067
:10271800c801dd000001eb006000b8003fb297007f
:10272800cfb297005fb39700efb397000000420065
:1027380081804a0002014b0083814b0000149800fd
:10274800111498002214980033149800c5fd37001e
:102758006bc0b300500020004100200093fd3700fb
:102768000b80fb0000804400204290003041900024
:10277800d09a8000900178001ac0b3000300e000ee
:10278800eefd32004811dd000482fb000402410026
:1027980013017800820f52008b0032000200e00023
:1027a800e6fd320064804100efe897008001780080
:1027b80010017800820f520082003200640040004d
:1027c8000200e000f9ff3a001ac0b300e7fd370045
:1027d8008b80fb00e9c3780081804400114390009e
:1027e800a1419000b1409000d59a80001501780071
:1027f800004578000200e000d0fd3200c808dd0086
:102808008381fb008381400092007800818f510012
:10281800810032000100e000c8fd32006400410080
:102828000001780090007800818f51007a00320012
:10283800640040000100e000f9ff3a001ac0b3004c
:10284800cafd37000b4578000a82fb0084814400ea
:1028580093419000c819dd0069427a000482fb00a8
:10286800048241008002eb006033b8000414980031
:1028780015149800261498003714980079fd37002d
:10288800ffed97000b83fb00868144001342900004
:102898000482fb008002eb00482ddd00c825de0025
:1028a8008b0575004825dd00234290008482fb00db
:1028b800040020000a0542008b854a0069427b001b
:1028c8000482fb008002eb000a0542008b854a0067
:1028d80033429000c822dd00040020000a024200b2
:1028e8008b824a006033b8000414980015149800cd
:1028f80026149800371498005afd3700e44f50000a
:1029080021003200e84f5000c6fe3a003102be00f6
:102918002103be00f4af9f0085b79f0096b79f00c4
:10292800a7b79f007fa897008fb097001fb19700a7
:10293800afb19700401498005114980062149800a1
:1029480073149800bffe3700110078006102b800c8
:102958006033b800f4af9f0085b79f0096b79f001b
:10296800a7b79f007fa897008fb097001fb1970067
:10297800afb1970040149800511498006214980061
:1029880073149800affe37001102be006033b80020
:10299800f4af9f0085b79f0096b79f00a7b79f0029
:1029a8007fa897008fb097001fb19700afb197002d
:1029b80040149800511498006214980073149800f9
:1029c800a0fe3700e1ef9f001ac0b3000200e0004c
:1029d8005afd3200130090000000e00057fd32005d
:1029e800001c98006feb97000cfd3700e1ef9f008b
:1029f8001ac0b3000200e00050fd3200130090003e
:102a08000000e0004dfd320010007800001c980026
:102a18006feb970001fd37001ac0b3000100e0001a
:102a280046fd3200120290000400e00043fd32002f
:102a3800940178001501900092007800818f510070
:102a48000c0032000100e0003cfd32006c00410047
:102a58000001780090007800818f51000500320055
:102a68006c0040000100e000f9ff3a001ac0b30012
:102a78003efd37001ac0b3000100e0002ffd320010
:102a88000200e0002dfd3200c830dd000780fb00a9
:102a9800808040005201900004007800020001008c
:102aa800001c98000000e00024fd3200a87290008d
:102ab800e5ef9f0005437800d8fc3700e44f50004d
:102ac80021003200e84f500090fd3a003102be006c
:102ad8002103be00f4a79f0085af9f0096af9f001b
:102ae800a7af9f007fa097008fa897001fa9970006
:102af800afa99700401498005114980062149800e8
:102b08007314980089fd3700110078006102b8003d
:102b18006033b800f4a79f0085af9f0096af9f0071
:102b2800a7af9f007fa097008fa897001fa99700c5
:102b3800afa99700401498005114980062149800a7
:102b48007314980079fd37001102be006033b80095
:102b5800f4a79f0085af9f0096af9f00a7af9f0087
:102b68007fa097008fa897001fa99700afa997008b
:102b78004014980051149800621498007314980037
:082b88006afd370000000500a2
:020000040000fa
:102b90000200fa00000f780000c027001e0060004d
:102ba000801988000080fa00000006000200fa0088
:102bb000000f780000c027001e006000301b880056
:102bc0000080fa00000006000200fa00000f780002
:102bd00000c027001e006000e01c88000080fa0092
:102be000000006000000fa00501880000080fa0083
:102bf000000006000000fa0063eea8000080fa0062
:102c0000000006000000fa006e1207000d12070017
:102c100043020700ad120700be120700bd0c0700fb
:102c200000e42a00f10220006a0f07000000eb0018
:102c300050348900778ea8000300370000000000a0
:102c4000010037000000000003120700940c070089
:102c5000700c07000004e0000e00320040348100d8
:102c60000000e00008003a00100020004034890015
:102c700077aea8000000eb003034890010c0b3002c
:102c80004af3b700030037000000eb00403489002e
:102c900077aea9006c0c07000004e000e7ff3200eb
:102ca000203481000000e000e6ff3a001000200020
:102cb00020348900e4ff37000000fa00d80c070038
:102cc0007034890040348100e10f500006003a0062
:102cd0000000eb00aeff07000000eb00b3ff0700b1
:102ce0000000eb00b8ff07000080fa0000000600bb
:102cf0000000fa0000618000009a880010618000e6
:102d0000109a880020618000209a8800606080000e
:102d1000309a8800d411070040692200190d07007d
:102d200066000700550c07000080fa00000006004e
:102d30000000fa004833ef00768ea900deff07009e
:102d40004d0f0700b0998800c1998800b0998000a4
:102d5000c19980000001780090998000a1998000bd
:102d60000000780000005100d0998800b2998000de
:102d7000c399800090998000a1998000800f510034
:102d8000818f59000a003100b0998000c1998000fc
:102d90000001780090998000a199800000007800df
:102da0008000510000e42a0000804000d099880093
:102db000b0998000c199800090998800a1998800fd
:102dc000d099800081010700d19980009061200096
:102dd000808f500003003e00a0612000d099880041
:102de00006003700d1998000008b2200808f5000b0
:102df00002003600008b2200d099880050348100f8
:102e00000000e0000a003a007034810080004000b9
:102e100000572800008040001000780080007800f3
:102e200050552d0000804000609988000800370050
:102e3000703481008000400000582800008040006d
:102e400090007800a0aa22000080400060998800cd
:102e50000080fa00000006000000fa0096ff07005c
:102e6000503481000000e0000a003a007034810014
:102e700080004000005728000080400010007800cb
:102e80008000780050552d00008040006099880037
:102e9000080037007034810080004000005828008e
:102ea0000080400090007800a0aa2200008040002e
:102eb000609988000080fa00000006000400fa0013
:102ec000889fbe0030348100e30f50002a0032009a
:102ed000e30f500005003e000000e0000800320053
:102ee000e10f500016003200c1003700e40f50001f
:102ef0008a003200e50f5000aa003200bc00370003
:102f0000610c07000000eb001034890035ff07005a
:102f100090348900501880004200de00803489001f
:102f20000000eb0070348900b4000700c500070002
:102f300010002000303489004c33ef00ac00370023
:102f400040348100e10f500005003a0010002000dd
:102f50001034890027ff070030002000303489003a
:102f600020348100e10f50009a003a004000200018
:102f7000303489009e003700409a80000000e8004d
:102f8000409a8800419a8000800c2000000178005f
:102f9000050009008280d8008000fd000000e000ec
:102fa00001003a00acff070043ff0700d099800002
:102fb000d1000700a0398100e0998800e0998000e5
:102fc0000000e00008003200e29980001452200066
:102fd000d5002000048fbe001e02be0005000900bf
:102fe00042aad80070998800706180000000d1006a
:102ff000813e20000180b900c10add004f04de00df
:1030000008847200cf8cde0008007800803eb0009b
:103010006034890060388100c036890060348100e6
:10302000b0368900c1368100b0368100a36d220020
:10303000826c22002d110700d0368100f0998800a3
:10304000503481000000e0000b003a0060998000dd
:1030500071998000010040006099880060998000ab
:10306000f3998000627322008000780003007800ea
:103070005b0407000a0037006099800071998000a6
:10308000010050006099880060998000f3998000e9
:10309000627322008000780003007800500407006b
:1030a00060732200100c070020348100e10f5000f3
:1030b00007003a000000eb00803489008034810072
:1030c000180c0700f00b0700400020003034890086
:1030d0004ad3bf000004a2000004e0000800320050
:1030e000419a800070382100808f50000400360023
:1030f0004833ef005000200030348900768ea8005d
:103100004a73ef00403481000000e00033003a00d1
:103110005000200030348900350037002034810011
:10312000e10f50000a003a00503481000000e00036
:1031300003003a00100020005034890002003700dc
:103140000000eb00503489000000eb0020348900bf
:1031500040348100e10f50000c003a00b299800029
:10316000c399800020a1270001002000800f51009a
:10317000818f59001b003600300020003034890058
:103180004c33ef00b40b07001900370040348100c6
:103190000000e00015003a001000200030348900e3
:1031a000130037000000eb00703489000000eb00d2
:1031b0008034890080348100da0b0700b20b0700ed
:1031c0000000eb004034890077aea9000000000049
:1031d0000700370000000000050037000000000075
:1031e000030037000000000001003700000000006d
:1031f0004f04be000080fa00000006000000fa0044
:10320000d0cc200060368900100220007036890082
:10321000e0fd270080368900e0fd27009036890018
:103220000000eb00a03689006000b800403689003d
:10323000513689000000eb00d03689000080fa008a
:10324000000006000200fa000000eb00000f78000a
:1032500008003700710420001e80400080004000fc
:1032600020682200008040008000eb000108780008
:103270001e0fe8001e007800ef0f5000f5ff36002b
:103280000000eb00703889006000b80080398900c8
:10329000913989000000eb00a03989000000eb00a3
:1032a000000f780008003700310320001e80400026
:1032b0008000400020682200008040008000eb0079
:1032c000010878001e0fe8001e007800ef0f500084
:1032d000f5ff36000000eb00303789006000b800d1
:1032e00040388900513889000000eb0060388900bf
:1032f0000080fa00000006000400fa008e80e8005a
:1033000080087800713881000e80e8001002780093
:10331000700420000100400080004000206822006e
:103320000080400004087800703881000000e80048
:103330007038890070388100ef0f500002003600ad
:103340000000eb00703889006000b8008039890007
:10335000913989000000eb00000f7800160037005b
:103360008439810095398100710420001e8040005d
:10337000800040002068220000804000100078009b
:10338000cf80de000400400085804800803989003d
:103390009139890080398100913981004c0add0022
:1033a0004401de0002017200c489de0002007800e0
:1033b000a03989001e0fe8001e007800ef0f5000b2
:1033c000e7ff36000080fa00000006000800fa005f
:1033d0008e80e80080087800e4368100f5368100b0
:1033e0000e80e80010007800cf80de00040040006e
:1033f00085804800e0368900f1368900703481000c
:10340000e60f500044003a00e0368100f1368100ba
:1034100000007800203789002437810006a32100ae
:10342000e711200026079800370798002e03900028
:10343000be0390000500090044bbd800cf80de0029
:1034400000378900113789006000b800e036890034
:10345000f13689003537810000378100113781004e
:10346000000278003003200005004000800040008a
:103470002068220000804000040878003037810076
:103480000000e8003037890030378100ef0f50002e
:10349000020036000000eb00303789006000b80001
:1034a00040388900513889000000eb00000f780097
:1034b000160037004438810055388100370320005a
:1034c0001e804300800040002068220000804000f1
:1034d00010007800cf80de000400400085804800a6
:1034e00040388900513889004038810051388100c6
:1034f0004c0add004401de0002017200c489de00d6
:1035000002007800603889001e0fe8001e00780075
:10351000ef0f5000e7ff36000080fa0000000600c1
:103520000800fa0000192000000f78008000eb006e
:1035300066004700010878008000eb000e80e8007c
:10354000010878008000eb00640047000108780063
:10355000cd0a0700e0312100d01d8800e0312100b4
:10356000201c8800e0312100701a880058003700c4
:10357000660047008e80e80011087800701980000e
:1035800011800a00000000008080fb000e80e8002f
:103590000108780066004700900078000e80e8007f
:1035a00010007800808f5000490032000e80e80043
:1035b000100078000000e00045003a001e0fe9000e
:1035c00064004700100078008000e80064004700b5
:1035d00001087800e01520009e007800808f5000e0
:1035e00002003a003183a9000b003700a00f200031
:1035f0009e007800808f500002003a006783a90087
:1036000005003700600920009e007800808f500080
:1036100001003a009d83a900640047001000780073
:10362000f90f50002a003600e11c80000000210044
:10363000008060000000e00008003a00d01d80001b
:10364000e20f500004003600d01d80000080e90029
:10365000d01d880001003700ba23ef00311b800025
:1036600000002100008060000000e00008003a0037
:10367000201c8000e20f500004003600201c800057
:103680000080e900201c8800010037008423ef003f
:103690008119800000002100008060000000e0002f
:1036a00008003a00701a8000e20f50000400360053
:1036b000701a80000080e900701a8800010037004d
:1036c0004e23ef008000eb00640047000108780003
:1036d0001e0078000000e000a5ff3a00ba23ef00ca
:1036e0008423ef004e23ef009da3a90067a3a90048
:0c36f00031a3a9000080fa0000000600d1
:020000040000fa
:1036fc0021c0b30041409800b000900012c2b3004a
:10370c0092409800900090000104010050419000fc
:10371c00d1c2b300814f5100bb003600e2c2b300ee
:10372c0042409800b00190000041eb00924198009b
:10373c00b001900054c0b300a4419800b0019000b7
:10374c00b2419800d29a8000a209900030019000fa
:10375c0043419800d29a8000a20990003001900059
:10376c00c819de005341980030019000d041900000
:10377c00634198003001900003c1b300734198007d
:10378c003001900023c8b300034998003001900029
:10379c0043c4b300134998003001900053c6b300e2
:1037ac00234998003001900083c1e9003349980007
:1037bc00b001900012c3b300c2499800b001900050
:1037cc0084c3b300d4499800b00190006642520003
:1037dc00e44998003002900003c3b300734a980088
:1037ec0030029000025298003002900095c3b30052
:1037fc00155298003002900022529800300190002f
:10380c003351980030019000e3c1410043519800be
:10381c00300190008341e80053519800d29a800007
:10382c00b20990000300e0007e00320032099000e3
:10383c00b000900012417800e2509800d19a8000bc
:10384c0031099000b000900012419000f2509800a5
:10385c00d19a800031099000b00090002241900074
:10386c0082589800d19a800031099000b0009000e5
:10387c004241900092589800d19a800031099000f2
:10388c00b000900052419000a2589800d19a80004c
:10389c0031099000b000900072419000b25898002d
:1038ac00d19a800031099000b0009000024990003c
:1038bc00c2589800d19a800031099000b000900055
:1038cc0012499000d2589800d19a8000310990008a
:1038dc00b000900022499000e2589800d19a8000e4
:1038ec0031099000b000900032499000f2589800d5
:1038fc00d19a800031099000b000900042499000ac
:10390c0082609800d19a800031099000b00090003c
:10391c006249900092609800d19a80003109900021
:10392c00b000900072499000a2609800d19a80007b
:10393c0031019000b0009000b2609800d19a8000e4
:10394c0041019000b0009000c2609800d19a8000b4
:10395c0041019000b00090004811de00d260980048
:10396c00d19a800051019000e1019000b0009000cc
:10397c00e2609800d19a800051019000e101900022
:10398c00b0009000481add004811de000201720000
:10399c00c819de00f2609800d19a800051019000a5
:1039ac00e1019000b000900083689800d19a8000eb
:1039bc0051019000e1019000b00090004819de0028
:1039cc0092689800d29a8000cf91de00b0009000ef
:1039dc00a2689800b0009000c81ade00481bdd00f9
:1039ec004812de0004027300b4689800b000900026
:1039fc00c3689800b00090004819de00d2689800a7
:103a0c00900090000104010021c0b30041409800d7
:103a1c00b000900052c1b30092409800900090000a
:103a2c0001040100300190002161980030019000e8
:103a3c0011619800300190000161980030019000f4
:103a4c007159980030019000615998003001900034
:103a5c005159980030019000415998003001900064
:103a6c003159980030019000215998003001900094
:103a7c0011599800300190000159980030019000c4
:103a8c00715198003001900061519800d19a8000da
:103a9c0031019000b0009000b2609800d19a800083
:103aac0041019000b0009000c2609800d19a800053
:103abc0041019000b00090004811de00d2609800e7
:103acc00d19a800051019000e1019000b00090006b
:103adc00e2609800d19a800051019000e1019000c1
:103aec00b0009000481add004811de00020172009f
:103afc00c819de00f2609800d19a80005101900044
:103b0c00e1019000b000900083689800d19a800089
:103b1c0051019000e1019000b00090004819de00c6
:103b2c0092689800d29a8000cf91de00b00090008d
:103b3c00a2689800b0009000c81ade00481bdd0097
:103b4c004812de0004027300b4689800b0009000c4
:103b5c00c3689800b00090004819de00d268980045
:103b6c009000900001040100881f78000004780088
:103b7c00b8009000214290008103780057407800f3
:103b8c00d29a8000920278000500e0008800320092
:103b9c004822dd000080fb00000242009501780005
:103bac00830f5200130032000300e00008003200c3
:103bbc00648042008002780090017800830f5200ec
:103bcc000c003200640040000300e000f9ff3a00f2
:103bdc0000c4b30021c0b30041449800804b78006e
:103bec009800900008007800010001004f04780054
:103bfc00000006000300e000f5ff32001500900005
:103c0c00a20190000300e0001a003200a202900012
:103c1c008001eb00950f120012003200a2029000fe
:103c2c00430020001500e00074003200a202900056
:103c3c00e5827900848f52000a003200a2029000c3
:103c4c0064834100e58279000500e0000500320044
:103c5c0086017800a2029000e5827900848f5200e0
:103c6c00f6ff3a0022029000648279000400e00022
:103c7c003b003a00920190000300e0006500320026
:103c8c0010037800120290008001eb00940f1300d7
:103c9c0012003200120290001400e0000f003200fb
:103cac00c30020001202900064827900860f52003b
:103cbc000a00320012029000ec824100648279000a
:103ccc000400e0000500320085017800120290002b
:103cdc0064827900860f5200f6ff3a0012029000bf
:103cec00648279000400e00013003200120190009d
:103cfc00830141004841900063415100e380400042
:103d0c00c3019000030001000004e00030003a0001
:103d1c0021c0b30041449800b80090009040980036
:103d2c009800900008007800010001004f04780012
:103d3c0000000600afff370020c0b30040449800dd
:103d4c0010c4b300804b78009800900008007800f5
:103d5c00010001004f04780000000600a5ff3700a9
:103d6c0022019000830141004841900063415100c1
:103d7c00e380400093019000030001000004e00088
:103d8c009aff320020c0b3004044980038009000e5
:103d9c0021c4b300114098009800900008007800ee
:103dac00010001004f0478000000060091ff37006d
:103dbc0030c4b30021c0b30041449800804b78005c
:103dcc0098009000080078000100010087ff370080
:103ddc0020c0b300404498003800900041c1b300ab
:103dec001140980098009000080078000100010034
:103dfc004f047800000006007eff37008001eb00c6
:103e0c0022029000648279000400e00099ff3200e5
:103e1c00d3ff370020c0b3004044980040c4b30027
:103e2c00804b780098009000080078000100010099
:103e3c004f047800000006006eff3700881f7800e2
:103e4c0000047800380390008680e80091427800e6
:103e5c0056407800d39a8000130278000400e000ea
:103e6c0053003200c82add000080fb008082420033
:103e7c0014017800828f5200130032000200e0001f
:103e8c000800320064004200000278001001780043
:103e9c00828f52000c003200640040000200e000ef
:103eac00f9ff3a0000c4b30021c0b30041449800ac
:103ebc00004b780098009000080078000100010089
:103ecc004f047800000006000200e000f5ff32000d
:103edc0014009000130190000200e0003c0032003e
:103eec0090037800130290000001eb00948f1300f4
:103efc0012003200130290001400e0000f00320098
:103f0c00c20020001302900064027900870f520057
:103f1c000a00320013029000ec02410064027900a6
:103f2c000400e00005003200050178001302900047
:103f3c0064027900870f5200f6ff3a0013029000da
:103f4c00640279000400e0000f003200930190003d
:103f5c0002814100320190000200010000c0e80023
:103f6c0040449800380090008040eb0011409800cd
:103f7c009800900008007800010001004f047800c0
:103f8c0000000600d0ff370020c0b300404498006a
:103f9c0010c4b300004b7800980090000800780023
:103fac00010001004f04780000000600c6ff370036
:103fbc0030c4b30021c0b30041449800004b7800da
:103fcc00980090000800780001000100bcff370049
:103fdc0020c0b3004044980040c4b300004b7800ac
:103fec009800900008007800010001004f04780050
:103ffc0000000600b4ff3700b0009000514178007b
:10400c00e24f5100380032000c003600e44f5100f2
:10401c003f0032001e00310033002000d29a800095
:10402c00330198000041eb008248780021c0b300b6
:10403c004140980090009000010401000204e0004f
:10404c000a003a008001eb00d29a800033019800fc
:10405c000041eb008248780021c0b3004140980039
:10406c009000900001040100f4ff3700e14f510073
:10407c001300320022c2b3008248780021c0b30082
:10408c00414098009000900001040100ebff3700c4
:10409c00e54f5100f7ff3a0053002000d29a800000
:1040ac00330198000041eb008248780021c0b30036
:1040bc00414098009000900001040100dfff3700a0
:1040cc0013002000d29a8000330198000041eb00cd
:1040dc008248780021c0b3004140980090009000c5
:1040ec0001040100d5ff370023002000d29a800084
:1040fc00330198000041eb008248780021c0b300e6
:10410c00414098009000900001040100cbff370063
:10411c0043002000d29a8000330198000041eb004c
:10412c008248780021c0b300414098009000900074
:10413c0001040100c1ff3700b00090000041eb000a
:10414c0092409800d19a800031019000b00090000c
:10415c00a240980031c0b3004140980090009000fc
:10416c000104010022c0b3004240980030019000cd
:10417c00114198009000900001040100a12c210035
:10418c006303200081814100e2b72100822878007e
:10419c00838f5000fdff3a00c12c21004100980094
:1041ac000000060040009000c1b821000108780012
:1041bc00210a220011009800210022002100980001
:1041cc00a1db21002110980041f221001110980070
:0441dc0000000600d9
:020000040000fa
:1041e0004e00fa00889fbe008a9fbe008c9fbe00d2
:1041f000f401470080097800760047000108780044
:1042000078004700020878007138210066004700f6
:1042100001087800740047009000780090ed2600b7
:10422000808f50000300340091ed26007400470099
:104230000108780076004700100078000000e000d8
:104240004601350076004700900078004055250073
:10425000808f5000d6003e00760047009000780026
:1042600090aa2200808f500067003e00680047003f
:10427000f600470011087800a0aa2200e8004700d5
:1042800091007800810050006a0047000108780022
:104290006a004700100078004600de000040780009
:1042a0000080fb00800040000000210000804000f2
:1042b000900078006c004700010878006800470013
:1042c000100078004600de00004078000080fb000f
:1042d0008000400000002100008040009000780035
:1042e0006e004700010878006600470090007800e3
:1042f00074004700100078000180b900c109dd009a
:104300004f01de0002817100520f98004f89de00dc
:10431000620f980070004700de09900003087800e3
:1043200070004700900078006c0047001000780093
:104330000180b900c109dd004f01de00028171007a
:10434000720f98004f89de00021798006c0047003a
:10435000fe09900003087800700047009000780084
:104360006e004700100078000180b900c109dd002f
:104370004f01de0002817100121798004f89de00a4
:10438000221798006e0047009e11900003087800e5
:1043900066004700900078006c004700100078002d
:1043a00000805000ee0047009100780001005000ae
:1043b0008000d10072004700010878006c004700bf
:1043c000900078006e0047001000780000804000e8
:1043d000f200470091007800010f40006e00470096
:1043e0009000780072004700100078008080400044
:1043f0000e80e8000108780064004700f2004700e2
:10440000110878000e02370076004700900078000f
:1044100060552d008080400068004700010878004a
:10442000a0aa2200e8004700910078008100500017
:104430006a004700010878006a0047001000780011
:104440004600de00004078000080fb008000400055
:104450000000210000804000900078006c004700c0
:104460000108780068004700100078004600de0070
:10447000004078000080fb00800040000000210028
:1044800000804000900078006e004700010878002e
:104490006600470090007800740047001000780024
:1044a0000180b900c109dd004f01de000281710009
:1044b000321798004f89de004217980070004700bd
:1044c000be1190000308780070004700900078004b
:1044d0006c004700100078000180b900c109dd00c0
:1044e0004f01de0002817100521798004f89de00f3
:1044f000621798006c004700de11900003087800f6
:1045000070004700900078006e00470010007800af
:104510000180b900c109dd004f01de000281710098
:10452000721798004f89de00021f98006e00470046
:10453000fe119000030878006600470090007800a4
:104540006c0047001000780000805000ee0047002b
:1045500091007800010050008000d10072004700f7
:10456000010878006c004700900078007200470056
:1045700010007800008f40006c0047009000780029
:104580006e0047001000780000804000f2004700f5
:1045900091007800810040000e80e800010878005a
:1045a00064004700f200470011087800a4013700ba
:1045b0007600470090007800b0aa2a008080400072
:1045c0006800470001087800a0aa2200e800470020
:1045d00091007800810050006a00470001087800cf
:1045e0006a004700100078004600de0000407800b6
:1045f0000080fb008000400000002100008040009f
:10460000900078006c0047000108780068004700bf
:10461000100078004600de00004078000080fb00bb
:1046200080004000000021000080400090007800e1
:104630006e0047000108780066004700900078008f
:1046400074004700100078000180b900c109dd0046
:104650004f01de0002817100121f98004f89de00b9
:10466000221f9800700047009e19900003087800f0
:1046700070004700900078006c0047001000780040
:104680000180b900c109dd004f01de000281710027
:10469000321f98004f89de00421f98006c004700cf
:1046a000be19900003087800700047009000780061
:1046b0006e004700100078000180b900c109dd00dc
:1046c0004f01de0002817100521f98004f89de0009
:1046d000621f98006e004700de1990000308780002
:1046e00066004700900078006c00470010007800da
:1046f00000805000ee00470091007800010050005b
:104700008000d10072004700010878007200470065
:10471000100f78006c004700900078006e00470092
:104720001000780000804000f200470091007800ff
:10473000810040000e80e800010878006e0047000c
:1047400090007800720047001000780080804000e0
:1047500064004700010878003901370076004700ff
:104760009000780040552d00808f5000d4003e000e
:10477000760047009000780090aa2a00808f5000b1
:104780006b003e0076004700900078000000280093
:10479000808040006800470001087800a0aa22003d
:1047a000e800470091007800810050006a0047004f
:1047b000010878006a004700100078004600de001b
:1047c000004078000080fb008000400000002100d5
:1047d00000804000900078006c00470001087800dd
:1047e00068004700100078004600de0000407800b6
:1047f0000080fb008000400000002100008040009d
:10480000900078006e0047000108780066004700bd
:104810009000780074004700100078000180b90013
:10482000c109dd004f01de0002817100721f980096
:104830004f89de000227980070004700fe199000a3
:104840000308780070004700900078006c00470073
:10485000100078000180b900c109dd004f01de00c1
:1048600002817100122798004f89de0022279800ec
:104870006c0047009e2190000308780070004700fc
:10488000900078006e004700100078000180b900a9
:10489000c109dd004f01de0002817100322798005e
:1048a0004f89de00422798006e004700be2190002d
:1048b0000308780066004700900078006c0047000d
:1048c0001000780000805000ee0047009100780052
:1048d000010050008000d1007200470001087800fc
:1048e00072004700100f78006c00470090007800bd
:1048f0007200470010007800808040000e80e800c1
:10490000010878006c004700900078006e004700b6
:104910001000780000804000f2004700910078000d
:10492000810040006400470001087800c40037009f
:104930007600470090007800605525008080400098
:104940006800470001087800a0aa2200e80047009c
:1049500091007800810050006a004700010878004b
:104960006a004700100078004600de000040780032
:104970000080fb008000400000002100008040001b
:10498000900078006c00470001087800680047003c
:10499000100078004600de00004078000080fb0038
:1049a000800040000000210000804000900078005e
:1049b0006e0047000108780066004700900078000c
:1049c00074004700100078000180b900c109dd00c3
:1049d0004f01de0002817100522798004f89de00ee
:1049e0006227980070004700de21900003087800dd
:1049f00070004700900078006c00470010007800bd
:104a00000180b9004109dd004f06de000c0671008f
:104a1000cf8ede006c0047000c0878007000470065
:104a2000900078006e004700100078000180b90007
:104a3000c109dd004f05de000a857100cf8dde0063
:104a40006e0047000a087800660047009000780072
:104a50006c0047001000780000805000ee00470016
:104a600091007800010050008000d10072004700e2
:104a7000010878006e00470090007800720047003f
:104a800010007800008f40000e80e800f200470020
:104a9000110878006c004700900078006e00470015
:104aa0001000780000804000f2004700910078007c
:104ab0008100400064004700010878006000370072
:104ac0007600470090007800b0aa22008080400065
:104ad0006800470001087800a0aa2200e80047000b
:104ae00091007800810050006a00470001087800ba
:104af0006a004700100078004600de0000407800a1
:104b00000080fb0080004000000021000080400089
:104b1000900078006c0047000108780068004700aa
:104b2000100078004600de00004078000080fb00a6
:104b300080004000000021000080400090007800cc
:104b40006e0047000108780066004700900078007a
:104b500074004700100078000180b9004109dd00b1
:104b60004f04de0008047100cf8cde0070004700a7
:104b70000808780070004700900078006c0047003b
:104b8000100078000180b900c109dd004f03de008c
:104b900006837100cf8bde006c00470006087800aa
:104ba00070004700900078006e0047001000780009
:104bb0000180b9004109dd004f02de0004027100ee
:104bc000cf8ade006e0047000408780066004700c8
:104bd000900078006c0047001000780000805000c2
:104be000ee00470091007800010050008000d100e5
:104bf00072004700010878006c00470090007800c0
:104c00006e0047001000780000804000f20047006e
:104c100091007800010f40000e80e800f20047008c
:104c2000110878006c00470090007800720047007f
:104c30001000780080804000640047000108780080
:104c400078004700900078006400470090087800e2
:104c500078004700100078000080e8008e80e800af
:104c600011087800780047001000780064004000c8
:104c70001e0878004f06be004f05be004f04be0060
:084c80000080fa0000000600ac
:020000040000fa
:104c880011002000110898008000eb00010898002e
:104c980000000600e4874700889fbe008a9fbe0088
:104ca8008c9fbe008e1f780000047800980c90003e
:104cb8005ac5b3003b002000e18f540015003a00ac
:104cc80058009000b0009000010001000004e000ce
:104cd8002300320008089000e20f5000050132005e
:104ce80057003e000000e0009f003a004a54980038
:104cf8005054980058009000100178008a407800bd
:104d080002000100090c9800980c9000e18f5400f3
:104d1800ebff32000900e00014003a005800900050
:104d2800a0009000010001000004e0000f00320024
:104d3800580090009000900001000100f8009000d9
:104d4800e28f5000b600320017003e000100e0007c
:104d580063003a0051c5b300814f5000180132007a
:104d6800980c90000900e000ecff32006a0644004d
:104d7800d09a8000c00890000100e00004003200d2
:104d8800c0089000a1189000e48f50004a0132003a
:104d98004f0778004f06be004f05be004f04be0007
:104da8004f00b10000000600e48f50008000320080
:104db80085003900e58f5000040032000000eb0048
:104dc80070049800980c9000e6ff3700c8509000d7
:104dd80052c5b30082cf500010003200e2cf50001d
:104de8000e003200814f500010003a003800900049
:104df80010407800fa4f5000f6003e000080fb009b
:104e0800c800900000004000e10078000800780029
:104e180001000100980c9000d2ff370081c0ea0021
:104e280041549800814f5000f0ff320031c1b30067
:104e380008007800ccfc0700980c9000c9ff3700e8
:104e4800e40f5000850032008c003900e50f500057
:104e5800050032000000eb00100c98007004980068
:104e68008004eb00adff3700c850900050c5b30078
:104e780080cf50000d003200e2cf50000b0032000e
:104e880058009000100178000200010058009000be
:104e9800d0009000010001000000eb00100c980009
:104ea800700498008004eb009cff370081c0ea0082
:104eb8004154980058009000100178000200010049
:104ec80058009000d0009000010001000000eb00a5
:104ed800100c9800700498008004eb008fff3700d6
:104ee800e18f5000b5ff3a000004e0001b003200db
:104ef800d8409000814f5000db003e0052c5b300ff
:104f08008240400041549800404498005954980009
:104f1800210020007104980082407800814f5000e1
:104f280002003200e24f50008dff3a004ef3b70006
:104f380020002000e09a88004000200070049800bb
:104f4800980c900087ff370051c5b300e234210068
:104f580012417800814f5100cb003200790498004b
:104f6800980c90007fff3700e10f5000b9ff3a001e
:104f7800c8409000485090000140400040549800bc
:104f8800580090001001780002000100484090008d
:104f98008a4f500083003200e24f500081003200f7
:104fa80020002000000c9800980c900042ff370069
:104fb8000004e000e4ff3a00e09a800070049800e2
:104fc800980c900067ff3700c850900080c04000e0
:104fd80041549800d85090008180fb00380190001f
:104fe80000f17800d85090008140e80051549800b2
:104ff8004841900082cf50004d00390051c5b300a0
:10500800814f500078003200e24f500076003200a5
:105018005000200070049800980c900051ff370051
:10502800c848900080cf5000ccff3a00485090000c
:10503800014040004054980050c5b30080cf500054
:1050480081003200e2cf50007f00320030002000a3
:1050580070049800980c900042ff370058009000a8
:10506800100178008040eb0002000100e09a800007
:10507800000c9800980c90000fff3700d850900053
:105088008180fb003800900081004000485090006b
:1050980011404000405498005800900010017800da
:1050a8009140780002000100d85090000180fb0078
:1050b8008001e800484190000281fb00828f510086
:1050c8002700350038019000624078008a4f500070
:1050d80054003200e24f50005200320050002000cd
:1050e800000c98008140e80051549800980c9000fa
:1050f800f1fe3700c8489000485090000140400039
:1051080040549800580090001001780002000100f7
:10511800484890008a4f50001c003200e24f50006f
:105128001a0032000b0c9800980c9000e2fe370031
:1051380051c5b300814f500002003200e24f5000c9
:10514800c2ff3a004ef3b70030002000e09a880012
:105158004000200070049800980c900001ff370070
:1051680038019000624078008a4f500025003200d4
:10517800e24f5000230032000b0c98008140e800f9
:1051880051549800980c9000cbfe37004ef3b700ae
:10519800eb9a880040002000000c9800980c9000c2
:1051a800c5fe37004ef3b70020002000e09a8800c3
:1051b80040002000000c9800980c9000befe3700bc
:1051c800405498001000200070049800980c90003b
:1051d800e4fe370011c2b30008007800e2fb0700c4
:1051e800980c9000dffe37004ef3b7005000200007
:1051f800e09a88004000200070049800980c900005
:10520800d8fe37004ef3b700eb9a88004000200024
:10521800000c98008140e80051549800980c9000c8
:10522800a5fe37004ef3b70050002000e09a880032
:1052380040002000000c98008140e800515498007c
:10524800980c90009cfe3700e0342100014878005b
:1052580030002000e09a8800400020007004980088
:10526800980c9000bffe3700790498003800900031
:105278000048eb0051c1b30008007800bafb0700f2
:10528800980c9000b7fe3700d8409000814f50002e
:10529800f5ff3e0052c5b3008240400041549800db
:1052a8004044980059549800200020007004980049
:1052b800980c9000abfe370040089000a0c4900006
:1052c8008984fb00e384440058009000c0009000eb
:1052d800010001000080fb00808f540007003d00a2
:1052e800d09a800040099000c00890007219900080
:1052f800e1189000810f51000d003100809a800064
:10530800919a800061004000e0804800809a8800ff
:10531800919a88004f0778004f06be004f05be00df
:105328004f04be004f00b100000006009efe37008b
:10533800400890008000eb00711898005800900019
:105348001001780021c0b30002000100580090004d
:10535800d19a8000c1089000a1c090001001780087
:105368000200010058009000c84890001001780021
:105378000200010058009000d19a8000c1089000f6
:105388008120900010017800020001005800900070
:10539800d19a8000c108900081209000c808de00e2
:1053a8001001780002000100d09a8000c009900026
:1053b800c00890004009900023c29000c84990009e
:1053c8008341420083c1e8008120900081c04100f0
:1053d80092c5900081c545000007eb008004eb00f2
:1053e8008e00e80081bf9f00720747008186400059
:1053f8004008900060807e0060c57c001c0078003a
:10540800100178008a407800020001008ac5450032
:105418008904e800d09a8000c0089000e1407f002d
